:100000000EC200003DC200003BC2000039C2000029
:1000100037C2000035C2000033C2000031C2000008
:100020002FC200002DC200002BC2000029C2000018
:1000300027C2000025C2000023C2000021C2000028
:100040001FC200001DC200001BC2000019C2000038
:1000500017C2000015C2000013C200000C94691BF7
:100060000FC200000C94331B0C94091B09C2000042
:1000700007C2000005C2000003C2000001C2000068
:10008000FFC10000FDC10000FBC10000F9C100007C
:10009000F7C10000F5C10000F3C100000C94B31BD0
:1000A000EFC10000EDC10000EBC10000E9C100009C
:1000B000E7C10000E5C10000E3C10000E1C10000AC
:1000C000DFC10000DDC10000DBC10000D9C10000BC
:1000D000D7C10000D5C10000D3C10000D1C10000CC
:1000E000CFC1000000407A10F35A00A0724E1809E8
:1000F0000010A5D4E80000E87648170000E40B548F
:10010000020000CA9A3B000000E1F505000080965D
:100110009800000040420F000000A086010000008F
:10012000102700000000E803000000006400000049
:1001300000000A00000000000100000000002C7612
:10014000D888DC674F0823DFC1DFAE59E1B1B7962D
:10015000E5E3E453C63AE651997696E8E6C284268A
:10016000EB898C9B62ED407C6FFCEFBC9C9F40F266
:10017000BAA56FA5F490055A2AF75C936B6CF967E2
:100180006DC11BFCE0E40D47FEF520E6B500D0EDA7
:10019000902E0300943577050080841E080000200F
:1001A0004E0A000000C80C333333330F986E1283AD
:1001B0001141EF8D2114893BE65516CFFEE6DB1881
:1001C000D1844B381BF77C1D901DA4BBE424203246
:1001D00084725E228100C9F124ECA1E53D27005E16
:1001E000BCE2613FDD83C29C7E20A3FD1F419DC315
:1001F000217FFCA2401E5F01E3BD3E6082DC237DC7
:100200009FC1421CFEA0E1BF5D0380DE3C62BEE0F8
:10021000025CDF81633D7C22C09E1D43A1FF461826
:10022000FAA427799BC584DA3866E5BB5907DB85D4
:100230006739BAE406581947A5FB7826C49A653B86
:10024000D987045AB8E6A7F91B45C6987A24F8A6B8
:10025000441A99C7257B3A6486D85B05E7B98CD2E6
:10026000306EEDB3510F4E10F2AC2F7193CD114F94
:10027000ADF3702ECC92D38D6F31B2EC0E50AFF146
:10028000134DCE90722C6D33D18F0C52B0EE326C78
:100290008ED0530DEFB1F0AE4C1291CF2D73CA94A6
:1002A0007628ABF517490856B4EA6937D58B570954
:1002B000EBB536688AD495CB2977F4AA4816E9B706
:1002C000550B88D6346A2B7597C94A14F6A8742A38
:1002D000C896154BA9F7B6E80A54D7896B357C3C0C
:1002E0003E5E2B3D3F2F5B5D3B2C2A225C000000D5
:1002F0002200250028002B002E00310034000201CE
:100300000000050108010B0100000A0B02090C0D99
:100310000E080703040100000000000000000000B8
:1003200000000000000000000000000000000000CD
:10033000000000001211100000000000000000008A
:1003400000000000000000000000000000000000AD
:100350002100240027002A002D0030003300010175
:100360000000040107010A011F1C1F1E1F1E1F1F82
:100370001E1F1E000020002300260029002C002F35
:100380000032000001000003010601090105050516
:1003900005070508080808020202020A0A080804FC
:1003A000040404010101010101010103030303032A
:1003B000030303040707070C0C0C0C0C0C0C0C02B9
:1003C00002020206060606060606060B0B0B0B0BC0
:1003D0000B0B0B01021020200808102040102040B9
:1003E00080020102010804020101020408102040F9
:1003F0008080402010080402018004020180402017
:10040000100804020108040201010204081020403F
:1004100080010204081020408000D71C852311248D
:100420001FBECFEFD1E2DEBFCDBF00E00CBF28E0A2
:10043000AAE7B4E001C01D92A53FB207E1F714E0BE
:10044000A0E0B2E0E8E8F5E500E00BBF02C00790ED
:100450000D92AA37B107D9F712E0CEE0D2E000E062
:1004600006C021970109802FFE010E947E28CD3011
:10047000D10780E00807A9F70E94BB1D0C94B32A9E
:10048000BFCD0895DC0115961C92159714961C9209
:10049000149713961C9213971C9281E011968C93DB
:1004A000119711968C9111978C3070F4282F215050
:1004B000330BF901E859FC4FE491823009F4EF5F06
:1004C000E11102C08F5FEACF81E012968C9308950C
:1004D000CF93DF93FC01828193819093B208809344
:1004E000B10884819581A681B7818093B3089093E8
:1004F000B408A093B508B093B60880859185A2850D
:10050000B3858093B7089093B808A093B908B093C7
:10051000BA08DF011C96CF014996CBEBD8E02D91AC
:100520002993A817B907D9F7818D928D9093C9089F
:100530008093C8088FEA98E0DF91CF9108952091C9
:10054000390581E0213208F044C0809160058111B5
:10055000FCCF8091380592E09093600591E09093F4
:100560005F059FEF90935E0510925D0520935C05FB
:10057000A8E1B5E0EAE3F5E090E0291331C010927C
:100580005B0590915B05880F892B80935B058091BB
:100590005A05813049F510925A0580915B05809388
:1005A000BB008091BC0083FDF8CF85EC8093BC003C
:1005B000809160058230E1F380915E058F3FB1F05C
:1005C00080915E058032A1F080915E05803391F0CC
:1005D00084E01092170510923905109216050895BF
:1005E0003D9131939F5FC9CF85EEE0CF80E0F1CFA1
:1005F00082E0EFCF83E0EDCF08950895AF92BF92F0
:10060000CF92DF92EF92FF920F931F93CF93DF93DE
:100610006C017B018B01040F151FEB015E01AE180D
:10062000BF08C017D10759F06991D601ED91FC912F
:100630000190F081E02DC6011995892B79F7C5014C
:10064000DF91CF911F910F91FF90EF90DF90CF90AE
:10065000BF90AF900895FC01538D448D252F30E05D
:10066000842F90E0821B930B541710F0CF960895BF
:1006700001970895FC01918D828D981761F0A28DEC
:10068000AE0FBF2FB11D5D968C91928D9F5F9F73B2
:10069000928F90E008958FEF9FEF0895FC01918D68
:1006A000828D981731F0828DE80FF11D858D90E0D5
:1006B00008958FEF9FEF0895FC01918D228D892F72
:1006C00090E0805C9F4F821B91098F73992708955A
:1006D00085E897E0F1DF21E0892B09F420E0822F03
:1006E0000895FC01A48DA80FB92FB11DA35ABF4FC7
:1006F0002C91848D90E001968F739927848FA68921
:10070000B7892C93A089B1898C91837080648C9374
:10071000938D848D981306C00288F389E02D808123
:100720008F7D80830895EF92FF920F931F93CF9355
:10073000DF93EC0181E0888F9B8D8C8D98131AC01C
:10074000E889F989808185FF15C09FB7F894EE8903
:10075000FF896083E889F989808183708064808360
:100760009FBF81E090E0DF91CF911F910F91FF90AB
:10077000EF900895F62E0B8D10E00F5F1F4F0F7353
:100780001127E02E8C8D8E110BC00FB607FCFACF0F
:10079000E889F989808185FFF5CFCE01A2DFF2CF0C
:1007A000EB8DEC0FFD2FF11DE35AFF4FF0829FB749
:1007B000F8940B8FEA89FB8980818062D0CFCF9338
:1007C000DF93EC01888D8823B1F0AA89BB89E88981
:1007D000F9898C9185FD03C0808186FD0CC00FB620
:1007E00007FCF7CF8C9185FFF2CF808185FFEDCF9D
:1007F000CE0177DFEACFDF91CF91089580E090E0DE
:10080000892B21F065DF81110E94000080E090E0DB
:10081000892B49F080E090E0892B29F00E940000AC
:1008200081110E94000080E090E0892B49F080E077
:1008300090E0892B29F00E94000081110E940000A5
:1008400080E090E0892B49F080E090E0892B29F04E
:100850000E94000081110C9400000895282F30E0C0
:10086000F901E85FFC4F9491F901ED52FC4F44917E
:1008700023573C4FF9012491222309F435C09923D1
:1008800011F191509231F8F4E92FF0E08827E45B00
:10089000FB4F8F4F0C947E287D0481045E04750409
:1008A0007904630484048A048E04940498049C04E8
:1008B000A204A6046304AA04B004B40480918000D6
:1008C0008F7780938000E22FF0E0EE0FFF1FE25160
:1008D000FD4FA591B4918FB7F894EC91611148C088
:1008E00040954E234C938FBF0895809180008F7D5B
:1008F000E8CF80918000877FE4CF84B58F7784BD77
:10090000E2CF84B58F7DFBCF8091B0008F7780934D
:10091000B000D9CF8091B0008F7DF9CF8091900049
:100920008F7780939000CFCF809190008F7DF9CF0B
:1009300080919000877FF5CF8091A0008F77809382
:10094000A000C1CF8091A0008F7DF9CF8091A00041
:10095000877FF5CF809120018F7780932001B3CFDF
:10096000809120018F7DF9CF80912001877FF5CF85
:100970004E2BB8CFCF93DF9390E0FC01ED52FC4FAC
:10098000249183579C4FFC0184918823D1F090E0FF
:10099000880F991FFC01E25BFC4FA591B491FC010B
:1009A000E251FD4FC591D49161110EC09FB7F894EB
:1009B0008C91E22FE0958E238C932881E223E883AB
:1009C0009FBFDF91CF9108958FB7F894EC91E22B00
:1009D000EC938FBFF6CF3FB7F8948091C904909104
:1009E000CA04A091CB04B091CC0426B5A89B05C045
:1009F0002F3F19F00196A11DB11D3FBFBA2FA92F9E
:100A0000982F8827BC01CD01620F711D811D911D9A
:100A100042E0660F771F881F991F4A95D1F7089506
:100A20008F929F92AF92BF92CF92DF92EF92FF92FE
:100A30004B015C01D0DF6B017C01CDDF6C197D09BE
:100A40008E099F09683E734081059105B0F321E04E
:100A5000821A9108A108B10888EEC80E83E0D81E5A
:100A6000E11CF11C81149104A104B10431F7FF9041
:100A7000EF90DF90CF90BF90AF909F908F900895B0
:100A80002FB7F8946091C5047091C6048091C70493
:100A90009091C8042FBF089585ED8093BC0080918C
:100AA000BC0084FDFCCF1092600508952091A10444
:100AB000260F3327331F21323105ECF420916005D6
:100AC000FC0190E080E0243069F082E00895A0917C
:100AD000A1042191AC014F575B4FA40FB52FB11D5D
:100AE0002C930196861798F38091A104680F609368
:100AF000A10480E0089581E00895E091620580916D
:100B00006105E81730F4F0E0ED59FA4F808190E08C
:100B100008958FEF9FEF0895909162058091610590
:100B20002FEF3FEF981748F4E92FF0E0ED59FA4F17
:100B3000208130E09F5F90936205C9010895809104
:100B4000610590916205891B990B0895CF92DF9200
:100B5000EF92FF920F931F93CF93DF937C01CB0112
:100B60008A0120911605222389F0EB016B01C40E46
:100B7000D51ECC15DD0561F06991D701ED91FC9191
:100B80000190F081E02DC7011995F3CF642F8EDF1E
:100B9000C801DF91CF911F910F91FF90EF90DF90EF
:100BA000CF900895CF93DF931F92CDB7DEB76983BF
:100BB000209116052223F9F020913905203258F0B2
:100BC00021E030E0FC013383228390E080E00F904D
:100BD000DF91CF91089580911705E82FF0E0E85E4E
:100BE000FA4F998190838F5F809317058093390521
:100BF00081E090E0ECCF61E0CE01019657DFF8CFC5
:100C000090E080E008958FB7F89480917B048FBFC7
:100C1000089561E0FC01848121DE80917A048111D4
:100C200010927A0408958EBD00000DB407FEFDCF2A
:100C30008EB508958FEFF7CF0F931F93CF93DF9368
:100C4000EC011EDF8B01F6DF8F3F61F019DF601BC7
:100C5000710B6C177D07B8F380E0DF91CF911F9186
:100C60000F91089581E0F9CF8CBD9DBD0895CF937C
:100C7000DF93EC0180917A04811108C081E08093B8
:100C80007A0480912E0890912F08EEDF60E08C812D
:100C9000DF91CF91E3CD8F929F92AF92BF92FF925F
:100CA0000F931F93CF93DF93EC01F62E49015A0166
:100CB0008E81882379F08F8198859C012F5F3F4F2B
:100CC00038872F838230924010F4B4DFF4CFCE0106
:100CD000A0DF1E82CE01CBDF8CE291E0ADDF8F2D55
:100CE0008064A1DF08E110E0D501C401002E04C03A
:100CF000B695A795979587950A94D2F794DF0850F3
:100D00001109083F8FEF180779F785E9FF2021F0D7
:100D100028E087E8F2128FEF86DF10E08BDF8A870A
:100D200087FF04C01F3F11F01F5FF8CFDF91CF9105
:100D30001F910F91FF90BF90AF909F908F9008955B
:100D4000AF92BF92CF92DF92EF92FF920F931F93D9
:100D5000CF93DF93EC016901C801820F931F8130AB
:100D6000924048F58E81882379F088819981AA8103
:100D7000BB8184179507A607B70731F48F81988543
:100D8000C816D90608F03CC0488359836A837B8320
:100D90008B85833039F089E0440F551F661F771F1C
:100DA0008A95D1F79A01AB0161E1CE0174DF882306
:100DB00081F083E08D83CE012CDF80E0DF91CF9145
:100DC0001F910F91FF90EF90DF90CF90BF90AF9069
:100DD000089556DE5B012EDF8A878F3F59F450DE7F
:100DE0006A197B096D327140B0F38FE08D83CE01BB
:100DF00010DFE1CF8E3F81F418861F8281E08E8361
:100E00008F8198858C159D0548F414DF8F81988516
:100E1000019698878F83F4CF8DE0E8CF6701E00ECD
:100E2000F11E08DFF60181936F01EE15FF05C9F78A
:100E30008F819885080F191F18870F83898588234C
:100E400019F00115124090F08E81882379F08F817E
:100E500098859C012F5F3F4F38872F8382309240C7
:100E600010F4E8DEF4CFCE01D4DE1E8281E0A6CFFE
:100E7000CF92DF92EF92FF920F93CF93DF93EC012B
:100E8000690182E1411551056105710591F08B857C
:100E9000833039F089E0440F551F661F771F8A950C
:100EA000D1F79A01AB0168E1CE01F5DE882319F094
:100EB00084E08D8326C08EEFB6DE76018EEFD81AE1
:100EC000F70181917F01AFDEEC14FD04C9F78FEFCC
:100ED000AADE8FEFA8DEAEDE8A878F71853069F4D7
:100EE000011113C0CE0195DE81E0DF91CF910F910A
:100EF000FF90EF90DF90CF90089581E18D83CE0138
:100F000088DECE0186DE80E0F0CF88E592E094DED8
:100F1000811102C085E1CDCF20E030E0A9016DE074
:100F2000CE01B9DE882311F084E1C3CF83DE8111C5
:100F3000FBCFD8CF0F9340917D0450917E046091F8
:100F40007F0470918004411551056105710591F090
:100F5000082F23E835E0809183079091840788DF8C
:100F6000882349F010927D0410927E0410927F0431
:100F70001092800481E00F9108950F93CF93C82FB2
:100F800080917C04811105C0C1E08C2FCF910F911D
:100F90000895409100025091010260910202709107
:100FA00003020C2F23E835E080918307909184079A
:100FB0005FDF811102C0C0E0E8CFCC2329F381E0DC
:100FC000B9DF8823C1F310927C04DFCF8F929F9208
:100FD000AF92BF92EF92FF920F931F93CF934B016B
:100FE0005C01C42F8091000290910102A091020245
:100FF000B091030288159905AA05BB0541F181E06E
:10100000BCDF81110BC080E0CF911F910F91FF9049
:10101000EF90BF90AF909F908F90089583E8E82E57
:1010200085E0F82E00E012E030E020E0B501A401F8
:10103000809183079091840783DE882321F3809237
:10104000000290920102A0920202B092030240912B
:101050007C044C2B40937C0481E0D6CF8F929F92EE
:10106000AF92BF92CF92DF92EF92FF92CF9320E3A5
:1010700038E03093840720938307882309F46BC0FA
:1010800040E060E070E0CB01A1DF81110BC080E0A7
:10109000CF91FF90EF90DF90CF90BF90AF909F9057
:1010A0008F900895809141078F7789F780914D0740
:1010B00090914E07A0914F07B0915007843691054B
:1010C000A105B10520F3C0904907D0904A07E090F0
:1010D0004B07F0904C07C114D104E104F104B9F2BC
:1010E00040E0C701B60172DF882389F280918E0546
:1010F00090918F058115924051F6A0919305AA23F6
:1011000031F260919105709192056115710509F4B4
:10111000BECF20919005222309F4B9CFA0934E08A9
:101120002093400890E080E030E0E1E0F0E0C82F5C
:10113000AF01082E02C0440F551F0A94E2F724178E
:10114000350769F041E0480F01968930910579F73C
:10115000409349089CCFC12CD12C7601C1CF8093FC
:1011600049082091990530919A0550E040E02115F9
:10117000310541F42091A7053091A8054091A905BA
:101180005091AA05209341083093420840934308A8
:101190005093440846015701860E971EA11CB11CAE
:1011A00080924F0890925008A0925108B092520835
:1011B000E0919405F0919505F0935508E09354085B
:1011C000B0E00E948C27DC01CB01880D991DAA1D7F
:1011D000BB1D8093560890935708A0935808B0936E
:1011E000590825E0EE0FFF1F2A95E1F7E150FE4F69
:1011F000EF2FFF27E6958E0F9F1FA11DB11D809336
:101200004A0890934B08A0934C08B0934D088090E7
:10121000960590909705B12CA12C8114910441F46E
:101220008090A3059090A405A090A505B090A60578
:10123000C81AD90AEA0AFB0AC80CD91CEA1CFB1C0A
:1012400004C0F694E794D794C794CA95D2F7C09295
:101250004508D0924608E0924708F092480885EF8A
:10126000C8168FE0D806E104F10428F48CE08093DE
:10127000530881E00DCF80E125EFC2162FEFD20693
:10128000E104F104A0F38091AF059091B005A09125
:10129000B105B091B2058093560890935708A0937A
:1012A0005808B093590880E2E2CF4F925F926F9254
:1012B0007F928F929F92AF92BF92CF92DF92EF92E6
:1012C000FF920F931F93CF93DF93EC0142305105B0
:1012D0006105710590F480E0DF91CF911F910F912E
:1012E000FF90EF90DF90CF90BF90AF909F908F9046
:1012F0007F906F905F904F90089589859A85AB8518
:10130000BC850196A11DB11D84179507A607B707D7
:1013100010F3CB88DC88ED88FE888F89803109F056
:1013200042C0BB27A72F962F852F480159012A01BC
:101330003B01C80ED91EEA1EFB1E8091000290914F
:101340000102A0910202B0910302C816D906EA0672
:10135000FB0699F58F898031B9F5B301A2015527B4
:1013600066277727440F551F4D575A4FFA01918230
:10137000808280917C04816080937C048A898230A1
:1013800080F08D819E81AF81B8858C0D9D1DAE1D35
:10139000BF1D80937D0490937E04A0937F04B0933F
:1013A000800481E099CFDB01CA01E7E0B695A795FB
:1013B00097958795EA95D1F7B8CF40E0C701B60178
:1013C00005DE8111C7CF87CFB301A2014F77552723
:1013D00066277727440F551F440F551F4D575A4F07
:1013E000FA0180829182A282B382C3CF8F929F92B0
:1013F000AF92BF92CF92DF92EF92FF920F931F9323
:10140000CF93DF93FC0181859285A385B4850196F6
:10141000A11DB11D84179507A607B70770F480E0DA
:10142000DF91CF911F910F91FF90EF90DF90CF90C0
:10143000BF90AF909F908F90089583889488A588DF
:10144000B6888789803189F5BB27A72F962F852FEE
:10145000E9016A017B018F01BC01CD01680D791D95
:101460008A1D9B1D8090000290900102A0900202B4
:10147000B090030286169706A806B90601F5F80192
:101480008789803109F5DD24EE24FF24F601EE0F73
:10149000FF1FED57FA4F80819181B0E0A0E0888373
:1014A0009983AA83BB8381E0BBCFDB01CA01C7E07C
:1014B000B695A79597958795CA95D1F7C9CF40E07E
:1014C00085DD8111DCCFABCFE894C7F8DD24EE24B5
:1014D000FF24F601EE0FFF1FEE0FFF1FED57FA4F2F
:1014E00080819181A281B381BF70D9CF4F925F92E9
:1014F0006F927F92AF92BF92CF92DF92EF92FF9264
:101500000F931F93CF93DF9300D01F92CDB7DEB719
:101510008C0149835A836B837C835901C12CD12C64
:101520007601412C82E0582E612C712C49815A8120
:101530006B817C819E012F5F3F4FC80157DF88235D
:1015400039F1F8018585A301920104C0220F331FF0
:10155000441F551F8A95D2F7DA01C901C80ED91E5A
:10156000EA1EFB1E49815A816B817C81878980310B
:1015700011F188EF9FEFAFEFBFE0481759076A07F7
:101580007B07A0F2F501C082D182E282F38281E082
:101590000F900F900F900F90DF91CF911F910F91AF
:1015A000FF90EF90DF90CF90BF90AF907F906F90C3
:1015B0005F904F90089588EF9FEFA0E0B0E0DDCFFF
:1015C000CF93DF93FC012581222321F080E0DF917E
:1015D000CF910895EC0180915308803159F582E054
:1015E0008583178A108E118E128E809154089091E7
:1015F0005508B0E0A0E025E0880F991FAA1FBB1F87
:101600002A95D1F7838B948BA58BB68B8CE398E0CE
:101610009C8F8B8F81E08C831E821F821886198697
:101620001A861B861C861D861E861F86188A198AA6
:101630001A8ACDCF803251F683E0858340915608D7
:10164000509157086091580870915908478B508FF6
:10165000618F728F9F012D5E3F4F8CE398E046DFD4
:101660008111D4CFB3CF8F929F92AF92BF92CF927E
:10167000DF92EF92FF920F931F93CF93DF93EC01D2
:101680008D8181110EC080E0DF91CF911F910F916C
:10169000FF90EF90DF90CF90BF90AF909F908F9092
:1016A00008950B891C892D893E8904171507260783
:1016B000370748F34A015B01823031F48A869B8602
:1016C000AC86BD8681E0E0CF81149104A104B10411
:1016D00049F41E821F82188619861A861B861C866C
:1016E0001D86F0CF0A851B852C853D85EB8DFC8DF5
:1016F000858590E00996B901A80141505109610919
:101700007109082E04C076956795579547950A94F8
:10171000D2F775016401E1E0CE1AD108E108F108C1
:1017200004C0F694E794D794C7948A95D2F7C41668
:10173000D506E606F70620F0012B022B032B09F550
:101740008F89988DA98DBA8D8E839F83A887B9873D
:101750008E010A5F1F4FC114D104E104F10409F4A2
:10176000ADCF4E815F816885798598018B8D9C8D89
:101770003DDE91E0C91AD108E108F1088111EBCFF3
:1017800082CFC41AD50AE60AF70AE2CF3F924F92F7
:101790005F926F927F928F929F92AF92BF92CF9201
:1017A000DF92EF92FF920F931F93CF93DF93CDB70A
:1017B000DEB72C970FB6F894DEBF0FBECDBF5C012D
:1017C000DC015B968D909C905C9716964D905D9099
:1017D0006D907C901997411451046104710409F4CF
:1017E00067C0BFEF4B1A5B0A6B0A7B0A312CF4010E
:1017F00081859285A385B4859C01AD012F5F3F4F04
:101800004F4F5F4F29873A874B875C87730162018F
:101810001D821E821F821886F40181859285A38510
:10182000B4852D813E814F815885281739074A0795
:101830005B0708F054C089859A85AB85BC858C15FB
:101840009D05AE05BF0550F482E0C82ED12CE12CD9
:10185000F12C92E0492E512C612C712C9E012F5FAE
:101860003F4FB701A601C401C1DD8823C1F18981C1
:101870009A81AB81BC81892B8A2B8B2B09F12601A4
:1018800037019FEF491A590A690A790A2D813E8169
:101890004F8158852F5F3F4F4F4F5F4F2D833E83C2
:1018A0004F8358873FEFC31AD30AE30AF30AB4CF32
:1018B000F40140805180628073803324339497CF49
:1018C000C414D504E604F70409F70FEF1FEF2FEF58
:1018D0003FE0B701A601C401E8DC811119C080E036
:1018E0002C960FB6F894DEBF0FBECDBFDF91CF911F
:1018F0001F910F91FF90EF90DF90CF90BF90AF902E
:101900009F908F907F906F905F904F903F90089541
:10191000D50116964D915D916D917C911997411568
:1019200051056105710531F097018601C401BDDCE7
:101930008823A9F2D5011696CD92DD92ED92FC9204
:101940001997332051F0D701C6010196A11DB11D91
:10195000F40180839183A283B383F5018789908DFD
:10196000A18DB28D892B8A2B8B2B39F48481C78A68
:10197000D08EE18EF28E80688483F501848180624E
:10198000848381E0ADCF1F93CF93DF93FC0125814A
:101990002223C1F1162FEC01848187FF29C06685BF
:1019A00077858089918941E011DB882359F1EA89A3
:1019B00080E2E89FF0011124ED57FA4F309711F1C2
:1019C0008D81823040F48B899C89AD89BE89848F5A
:1019D000958FA68FB78F8F89988D938F828F8F89E0
:1019E000988DA98DBA8DB58BA48B8C818F778C83C4
:1019F000111103C08C818F7E8C83812FDF91CF9159
:101A00001F91BBCA80E0DF91CF911F910895FF9293
:101A10000F931F93CF93DF93EC018D81813041F0C1
:101A200090E080E0DF91CF911F910F91FF9008959A
:101A30008C8181FFF5CF82FD17C000918307109143
:101A40008407C80114D9F6D8F82EC801E2D88FEF60
:101A5000F812E6CF8C8185FF19C060E0CE0193DFDC
:101A60008C818F7D8C83DCCF4B895C896D897E89ED
:101A70008A859B85AC85BD8584179507A607B70722
:101A8000E1F2CE01F0DD8111D8CFCACF40917D04C3
:101A900050917E0460917F0470918004452B462B09
:101AA000472B19F080E046DABBCF80618C832A8512
:101AB0003B85317080E092E0821B930BB3CFCF93D4
:101AC000DF93EC0161E05FDF882311F01D8281E08C
:101AD000DF91CF9108952F923F924F925F926F9234
:101AE0007F928F929F92AF92BF92CF92DF92EF92AE
:101AF000FF920F931F93CF93DF9300D01F921F92FB
:101B0000CDB7DEB77C015B01342E5D83DC01159619
:101B10008C911597813009F0CBC014962C9021FE42
:101B2000C7C022FCB2C0C32CDD8022947FE02722F4
:101B30002094B22DB1702B2ED7011A964D915D9144
:101B40006D917C911D97C114D10409F422C15B965B
:101B50008D919C915C97FC0174807A948A019B0121
:101B600069E036952795179507956A95D1F7702204
:101B70008A01117071101FC001151105E1F416964C
:101B80004D915D916D917C911997411551056105BC
:101B9000710509F096C057968D919D910D90BC915D
:101BA000A02D0097A105B10509F0ACC0C701EEDD7D
:101BB000882309F47DC080E092E0801B910B4601F0
:101BC0008C159D0508F44C01D7015B964D915C91F5
:101BD0005C9716968D919D910D90BC91A02D0297CA
:101BE000A109B109FA01258504C0880F991FAA1F10
:101BF000BB1F2A95D2F74685578560897189840F66
:101C0000951FA61FB71F9C01AD01270D311D411D5A
:101C1000511D29013A01811432E0930609F078C080
:101C20008091000290910102A0910202B091030202
:101C300084159505A605B70559F48FEF9FEFDC01D4
:101C40008093000290930102A0930202B0930302DA
:101C5000022D9501B301A201809183079091840721
:101C600007D9882329F19EEFB91AC818D908F701B6
:101C700082859385A485B585880D991DA11DB11D0B
:101C800082879387A487B58757CFF7014389548903
:101C90006589768982859385A485B5854817590716
:101CA0006A077B0709F43FCFC701DDDC81113BCF19
:101CB00081E090E0D70113969C938E93129780E079
:101CC00006C09E012F5F3F4F91DB811102C090E063
:101CD00077C089819A81AB81BC81F701238D348DD6
:101CE000F901278948EF5FEF60E070E0203121F0D3
:101CF00048EF5FEF6FEF7FE084179507A607B70700
:101D000008F054CFF70186839783A087B18753CF1C
:101D10000115110591F5D7011A964D915D916D91BF
:101D20007C911D9753968D919D910D90BC91A02D06
:101D3000481759076A077B0700F181E01ED98823FD
:101D400009F4B6CF40920002509201026092020262
:101D50007092030280917C04816080937C04C801AE
:101D60008D579A4FD5019C01280D391DFC012E1766
:101D70003F0751F04D914193FACF41E0C301B201C9
:101D800025D98111ECCF94CF281B390BA20EB31E9D
:101D90006CCFF70183899489A589B6898417950743
:101DA000A607B70738F48481438B548B658B768BF9
:101DB00080688483F701848183FD1AC0832D9D810F
:101DC0000F900F900F900F900F90DF91CF911F9178
:101DD0000F91FF90EF90DF90CF90BF90AF909F90CA
:101DE0008F907F906F905F904F903F902F900895CD
:101DF00061E0C701C8DD882309F45ACFDFCFCF9354
:101E0000DF931F92CDB7DEB7698341E050E0BE019A
:101E10006F5F7F4F60DE0F90DF91CF910895FC01DF
:101E2000DB0112968D919C9113979383828383E3B8
:101E300092E09183808314968C91149784831596F5
:101E40008C911597858316964D915D916D917C913E
:101E5000199746835783608771871A964D915D91D4
:101E60006D917C911D9742875387648775871E9675
:101E70004D915D916D917C91519746875787608B0D
:101E8000718B52968C915297828B53964D915D91A6
:101E90006D917C915697438B548B658B768B5796BF
:101EA0004D915D916D917C915A97478B508F618FC9
:101EB000728F5B968D919C91948F838F0895089576
:101EC000FC01818D928D009711F061E05CCD089549
:101ED000DC015996ED91FC913097B9F08389948992
:101EE000A589B6894285538564857585841B950BC4
:101EF000A60BB70B811520E89207A105B10538F0B4
:101F00008FEF9FE7A0E0B0E0089590E080E00895B3
:101F1000DC0159968D919C91009739F0DC01ED918F
:101F2000FC910480F581E02D199490E080E0089503
:101F3000CF93DF93EC01E98DFA8D309749F481E07E
:101F400090E09B838A8390E080E0DF91CF910895B9
:101F500013821282898D9A8DBEDDE98DFA8D2281E0
:101F60003381232B61F7F1CFCF93DF931F92CDB74E
:101F7000DEB76983DC01ED91FC910280F381E02DF5
:101F800041E050E0BE016F5F7F4F19950F90DF91E8
:101F9000CF9108952F923F924F925F926F927F92CE
:101FA0008F929F92AF92BF92CF92DF92EF92FF9269
:101FB0000F931F93CF93DF9300D0CDB7DEB7FC0113
:101FC0008581811118C08FEF9FEF0F900F900F90B8
:101FD000DF91CF911F910F91FF90EF90DF90CF9005
:101FE000BF90AF909F908F907F906F905F904F9039
:101FF0003F902F900895848180FFE5CF43895489D5
:102000006589768982859385A485B585312C212CB7
:10201000481759076A077B0719F022242394312CAB
:102020006F012101CE0101963C01DF011696BB83B1
:10203000AA834114510409F4C4C0F60142855385B2
:10204000648575854A01F1E09F22D6015B968D91EA
:102050009C915C978A019B01E9E03695279517953D
:102060000795EA95D1F71596EC91E230E9F5FC0178
:10207000628D738D848D958D600F711F821F931FEC
:10208000A12C22E0B22EA818B9084A145B0408F467
:102090005201F601248126FD04C0A114F2E0BF061E
:1020A00071F400910002109101022091020230911E
:1020B0000302061717072807390709F05DC040E03B
:1020C0000E94E607882309F47ECFC4018D579A4FFA
:1020D000D3019C012A0D3B1DFC012E173F0709F47B
:1020E0006BC041914D93F9CFDC011496BC90BA942A
:1020F000B0228114910479F4B1100DC0452B462B08
:10210000472B69F5F6018789908DA18DB28D868365
:102110009783A087B187D6015B96ED91FC915C9780
:1021200016966D917D918D919C91199762507109D0
:1021300081099109258504C0660F771F881F991FA3
:102140002A95D2F70685178520893189600F711F7E
:10215000821F931F6B0D711D811D911D91CFD601A3
:1021600016964D915D916D917C9119972A813B81D5
:102170003DD98111D0CF27CF730185019401AB01E7
:10218000BC0180918307909184070E94A006882358
:1021900009F419CF6A0C7B1CF60182859385A4850E
:1021A000B5858A0D9B1DA11DB11D82879387A487CC
:1021B000B5874A185B083DCF281B390B620E731E8A
:1021C000EBCF2A94232809F0FECE898190E0FDCE42
:1021D000FC01818D928D009709F0DCCE8FEF9FEF8F
:1021E00008950F931F93CF93DF93EC01898D9A8D00
:1021F00010E000E0009789F0CDDE8C010F3F100762
:1022000061F0898D9A8DFC014285538564857585C1
:10221000415051096109710926DAC801DF91CF9156
:102220001F910F910895DC0180E0615038F0ED912D
:10223000E827F0E0E252FE4F8491F7CF0895DC01E9
:102240002C911196ED91FC91F8948181822B8183E0
:102250009281322F30959323928387E090E001970B
:10226000F1F781818323818383E290E00197F1F785
:1022700090817894EFECF0E03197F1F7922381E0D0
:1022800009F480E00895EF92FF920F931F93CF938C
:10229000DF937C0108E010E0C0E0D1E0C701CFDFB0
:1022A0008111CD2BDD0F01501109C1F78C2FDF916A
:1022B000CF911F910F91FF90EF900895FC019081B5
:1022C0000180F281E02D292F209560FF14C0F89441
:1022D0008281822382838181892B8183A3E2B0E082
:1022E0001197F1F78281982B9283789487ED90E093
:1022F0000197F1F70895F894828182238283818186
:10230000892B8183AFEFB0E01197F1F78281982B91
:10231000928378948FE090E0EBCFDF92EF92FF9280
:102320000F931F93CF93DF93EC01D62EE42E08E09A
:1023300010E0FF24F39461E08D2D8F2109F460E01B
:10234000CE01BCDFFF0C01501109A9F7E11010C04C
:10235000F894E981FA81918188818095892381832C
:10236000E981FA819281888180958923828378949A
:10237000DF91CF911F910F91FF90EF90DF90089523
:10238000EF92FF920F931F93CF93DF938C017B010A
:1023900040E065E5C2DFE70188E0E80EF11C6991E5
:1023A00040E0C801BADFCE15DF05C9F7DF91CF9154
:1023B0001F910F91FF90EF900895FC019081018093
:1023C000F281E02DF8948181292F20958223818349
:1023D00078943DE743E050E0315029F1DA0111975C
:1023E000F1F780818923C1F3F8948281822382836B
:1023F0008181892B81837894ABE7B7E01197F1F75E
:10240000F894818182238183A3E1B1E01197F1F7F0
:102410008081982381E009F080E07894E3E6F6E09B
:102420003197F1F7089580E00895EF92FF920F93AE
:102430001F93CF93DF937C018B01C0EDD8E08D819A
:102440009E81BBDFB7018D819E819ADF40E06EEBFC
:102450008D819E8162DF8D819E8115DFF8018083F1
:102460008D819E8110DFF80181838D819E810BDF3C
:10247000F80182838D819E8106DFF80183838D813F
:102480009E8101DFF80184838D819E81FCDEF8014D
:1024900085838D819E81F7DEF80186838D819E8103
:1024A000F2DEF80187838D819E81EDDEF801808761
:1024B0008D819E81DF91CF911F910F91FF90EF90C1
:1024C0007CCFCF93DF93EB01B0DF68E0CE01ABDED2
:1024D00091E02885281390E0892FDF91CF9108950E
:1024E000CF93DF9300D000D000D0CDB7DEB7BE01D0
:1024F0006F5F7F4FE6DF882349F08D818F33C1F016
:1025000038F48F31B9F0807F803F31F080E007C030
:102510008F3521F08F37B9F78CE001C08BE0299619
:102520000FB6F894DEBF0FBECDBFDF91CF910895F7
:102530008AE0F5CF89E0F3CF8F929F92AF92BF925E
:10254000CF92DF92EF92FF920F931F93CF93DF937F
:1025500000D000D000D0CDB7DEB75C01BE016F5F08
:102560007F4FAFDF882309F4A7C009811A819981C1
:10257000F50180818232A1F1C0F4803109F46AC092
:10258000C701B60129960FB6F894DEBF0FBECDBFC6
:10259000DF91CF911F910F91FF90EF90DF90CF903F
:1025A000BF90AF909F908F9008958832C9F08B3381
:1025B00039F7C12CD12C80ECE82E8FE7F82E90FD56
:1025C000DFCFB801110F880B990B0E949D2620E0E8
:1025D00030E040E85DE30E94D8266B017C01D0CF5B
:1025E0008D818F3339F198F48F3151F6B80133E092
:1025F000759567953A95E1F7072E000C880B990BB6
:102600000E949D2620E030E040E05FE3E4CF8F357C
:1026100019F08F37B1F2B4CFB80175956795072ED1
:10262000000C880B990B0E949D2620E030E040E0D2
:102630005EE3D1CFB8017595679575956795072EBF
:10264000000C880B990B0E949D2620E030E040E8AA
:102650005EE3C1CFF8848F812F2D281B330BB90186
:10266000072E000C880B990B0E949D264B015C01E4
:102670006F2D70E090E080E00E949B269B01AC01F2
:10268000C501B4010E940A286B017C01B80175954F
:102690006795072E000C880B990B0E949D2620E061
:1026A00030E040E85EE30E94A5279B01AC01C70132
:1026B000B6010E94A62791CFC12CD12C9EEFE92E06
:1026C00092ECF92E5DCFFF920F931F93CF93DF9380
:1026D00000D000D000D0CDB7DEB78C01BE016F5F57
:1026E0007F4FEFDEF82E882309F44EC0F801808179
:1026F000803109F449C08FE18D838091D508909194
:10270000D6085BDEB8018091D5089091D60838DEF6
:1027100040E06EE48091D5089091D608FEDD40E05F
:102720006B818091D5089091D608F7DD40E06C81EF
:102730008091D5089091D608F0DDF8018081803134
:1027400039F040E06D818091D5089091D608E5DDA3
:102750008091D5089091D60830DE4091D00868E489
:102760008091D5089091D608D8DD8091D008882333
:1027700031F06AE070E080E090E00E941005809106
:10278000D5089091D60819DE8F2D29960FB6F894AA
:10279000DEBF0FBECDBFDF91CF911F910F91FF9094
:1027A0000895BF92CF92DF92EF92FF920F931F9303
:1027B000CF93DF93EC01B62EC72EED84EE2081F08F
:1027C0001B861D861C8680E02396EB2DFC2D9F0129
:1027D000285F3F4F999191932E173F07D9F706C075
:1027E000ECDD81110DC01B861D861C86DF91CF910B
:1027F0001F910F91FF90EF90DF90CF90BF900895C1
:1028000040E060EFCE0189DDD12C01E011E0CE0186
:1028100016DDF82ECE0113DD91E0F9120EC08130E5
:1028200049F5113468F2EB86E11002C081E08D8732
:102830008B81882329F281E0C7CFED2DF0E0F812DB
:102840000FC08B851817A0F4DE01AE0FBF1F1396C3
:102850008C91802379F4F12C193008F41C87E12E37
:10286000EC0FFD1F8381902F9095892383830AC0ED
:102870008113F1CFFE01ED0DF11D8381802B838348
:10288000FF24F3946F2DCE0119DD1F5F000F11F4AB
:10289000D39401E087E08D1508F0B9CFC2CF0F9334
:1028A0001F93CF93DF938C01D62FE091D508F09141
:1028B000D60813861586148612861186108617820E
:1028C0001682158214821382C0E0B8018091D50867
:1028D0009091D60866DF882329F0DC1749F0CF5F96
:1028E000DC1798F780E0DF91CF911F910F91089549
:1028F00067E0C80198DCF80197818913F0CF81E087
:10290000F2CF909160059111FCCF282F91E0909328
:10291000600590935F053FEF30935E0510925D0573
:10292000380F30935C0590935B0590915B05906D3B
:1029300090935B0590915A05913019F510925A05C4
:1029400090915B059093BB009091BC0093FDF8CFF4
:1029500095EC9093BC00909160059130E1F39091DB
:102960005D05981710F420915D05AAE3B5E0E3E654
:10297000F5E080E0821307C0109262058093610544
:10298000089595EEE6CF9D9191938F5FF3CF80915F
:10299000D5089091D60811DD40E06CEC8091D50807
:1029A0009091D608BADC4091D00864E48091D508B3
:1029B0009091D608B2DC8091D2088823E9F080910A
:1029C000D1088A3051F08B3069F0893081F46EE59E
:1029D00070E080E090E00C9410056CEB70E080E01B
:1029E00090E0F9CF67E771E080E090E0F4CF6EEE21
:1029F00072E080E090E0EFCF0895CF92DF92EF9207
:102A0000FF921F93CF93DF93EC0180E2689FF00168
:102A10001124ED57FA4F9385917161F0842F8274E0
:102A200049F080E0DF91CF911F91FF90EF90DF9010
:102A3000CF900895142F6A8B80910002909101022B
:102A4000A0910202B09103028E879F87A88BB98B59
:102A5000C488D588F12CE12C7601DD24CC24CF8AE2
:102A6000D88EE98EFA8E828D938DB0E0A0E0AC0115
:102A7000BD014C295D296E297F294F8B588F698FA5
:102A80007A8F83858871B1F4848D958DA68DB78DED
:102A90008B8B9C8BAD8BBE8B81E08D831F701C83D9
:102AA0001E821F82188619861A861B861C861D8622
:102AB00081E0B8CF803109F0B4CF9E012D5E3F4F49
:102AC0008B8D9C8D0E94760A882309F4AACF84E01E
:102AD000E4CFFB0101900020E9F73197AF01461BDD
:102AE000570BDC01ED91FC910280F381E02D1994EC
:102AF0000F931F93CF93DF93EC01FB01448155812A
:102B000060817181E881F9810280F381E02D19955E
:102B10008C016DE472E0CE01DCDF800F911FDF914C
:102B2000CF911F910F910895CF93DF93BC0185E85A
:102B300097E0CFDFEC016DE472E085E897E0C9DF54
:102B40008C0F9D1FDF91CF910895CF93DF93EC0100
:102B500088819981009711F00E9422291982188298
:102B60001D821C821B821A82DF91CF910895FC0185
:102B700080819181009711F00C9422290895FC0125
:102B800080819181009711F00C94B82360E070E08F
:102B9000CB0108950F931F93CF93DF93EC018881AE
:102BA0009981009759F02A813B812617370730F029
:102BB00081E0DF91CF911F910F9108958B016F5F9D
:102BC0007F4F0E94AB29009759F0998388831B831C
:102BD0000A832C813D81232B59F7FC011082E8CF19
:102BE00080E0E7CFEF92FF920F931F93CF93DF9395
:102BF0006115710541F480E0DF91CF911F910F9134
:102C0000FF90EF90089541155105A9F07B01EC016B
:102C10000C811D81040F151FB801BCDF882359F3F7
:102C2000288139818C819D81B701820F931F0E9479
:102C30009D2A1D830C8381E0DFCFFC0144815581F7
:102C4000608171818AEC98E0CDCFCF93DF93EC0166
:102C500041E050E06CE872E0C5DF811102C0CE01B6
:102C600074DFCE01DF91CF910895CF93DF93EC0114
:102C7000FB014481558160817181B4DF811102C003
:102C8000CE0163DFCE01DF91CF910895EF92FF92E5
:102C90000F931F93CF93DF93EC017B018A01BA015D
:102CA00079DF81110AC0CE0150DFCE01DF91CF91D3
:102CB0001F910F91FF90EF9008951D830C83B70132
:102CC000888199810E949D2AF0CFFB01019000200C
:102CD000E9F73197AF01461B570BD8CF0F931F93DE
:102CE000CF93DF9300D000D000D0CDB7DEB78C01FA
:102CF000862FF801118210821382128215821482AB
:102D00004AE0BE016F5F7F4F90E00E942224BE0127
:102D10006F5F7F4FC801D9DF29960FB6F894DEBFE9
:102D20000FBECDBFDF91CF911F910F910895CF932B
:102D3000DF931F921F92CDB7DEB7FC011182108284
:102D4000138212821582148269831A82BE016F5F18
:102D50007F4FBBDF0F900F90DF91CF910895CF93FE
:102D6000DF93EC01FB018617970741F060817181C9
:102D70006115710539F04481558188DFCE01DF91FD
:102D8000CF910895E2DEFACFFC0111821082138206
:102D9000128215821482E3CFFC0111821082138209
:102DA000128215821482FB0101900020E9F731970D
:102DB000AF01461B570B6ACFEF92FF920F931F9301
:102DC000CF93DF93CDB7DEB7A1970FB6F894DEBFF0
:102DD0000FBECDBF7C01CB01BA01F7011182108279
:102DE000138212821582148242E0420F8E010F5F1D
:102DF0001F4F0E949B23009781F0BC01C70165DF34
:102E0000A1960FB6F894DEBF0FBECDBFDF91CF9174
:102E10001F910F91FF90EF900895C70196DEF0CFBC
:102E20003F924F925F926F927F928F929F92AF925A
:102E3000BF92CF92DF92EF92FF920F931F93CF93A7
:102E4000DF9300D000D000D01F921F92CDB7DEB725
:102E50007C01FE013196CE010C966F0130E2319378
:102E6000E817F907E1F7DA0130E087E09D91B92E24
:102E7000992309F43CC09E32F1F48A30C9F480E011
:102E80002B960FB6F894DEBF0FBECDBFDF91CF916A
:102E90001F910F91FF90EF90DF90CF90BF90AF9078
:102EA0009F908F907F906F905F904F903F9008958C
:102EB00038E08AE0DBCFEEEDF2E04491442321F0EC
:102EC00031969413FACFDBCF8317C8F24FED490F39
:102ED0004E35A8F64FE9490F4A3118F440EEB42EAA
:102EE000B90EF601E30FF11DB0823F5FBFCF8981BC
:102EF000803229F2322E8B01DB015B968D919C9101
:102F00005C97F701948F838F16961D921D921D92E8
:102F10001C921997FB011286138614861586F801F8
:102F200082859385A485B585438954896589768989
:102F300084179507A607B70708F04CC025E0B6959B
:102F4000A795979587952A95D1F7F82FFF70AF2E03
:102F5000D80115968C91823008F491CFC8011AD807
:102F600097FD8DCFF80182859385A485B5854F9611
:102F7000A11DB11D82879387A487B587F0E2AF9E1C
:102F8000B00111246D577A4F6115710509F477CF9F
:102F9000DB018C91882341F0853E09F062C0BB20A3
:102FA00029F0BB24B394BBCFB1100EC0F701A28AA5
:102FB0008091000290910102A0910202B09103025F
:102FC00086879787A08BB18BDB018C918111E9CF2C
:102FD000BB24B394832D8271823109F050CFBB2082
:102FE00009F44CC0F701668577858089918941E0B5
:102FF0000E94E607882309F442CFD70152968C91AC
:10300000B0E28B9FC00111248D579A4F009709F4AD
:1030100036CFFC013A9626E1DF011D922A95E9F7A9
:103020002BE0F601DC0101900D922A95E1F721E2F7
:1030300038E2FC01318B208B40E058E0578746870F
:10304000338B228B318F208F578B468B81E00E94F0
:10305000BD07882309F413CF432DD70152966C91F5
:103060000AC04BE050E0C6010E94872A892B09F074
:1030700056CF432D6A2DC701C0DC02CFF8018581F0
:10308000823009F4FCCEC8010E94C60B882309F4E3
:10309000F6CED8015B96ED91FC915C9716968D90DB
:1030A0009D90AD90BC901997B2E08B1A9108A10841
:1030B000B108858504C0880C991CAA1CBB1C8A9584
:1030C000D2F786859785A089B189880E991EAA1E98
:1030D000BB1E848124013501480E511C611C711CEA
:1030E00084149504A604B70409F1E1E04E1A5108CE
:1030F0006108710881E00E94BD07882309F4BFCEF2
:10310000E3E8F5E0119283E897E08E179F07D1F787
:1031100040920002509201026092020270920302F9
:1031200080917C04816080937C04DACFD8015B9627
:10313000ED91FC91258580E092E0A0E0B0E004C034
:10314000880F991FAA1FBB1F2A95D2F7F801438940
:10315000548965897689840F951FA61FB71F838BB5
:10316000948BA58BB68BD70152961C9283E895E081
:1031700050CFEF92FF920F931F93CF93DF93EC0109
:103180007B018A011B821A8288EE93E0A0E0B0E006
:103190008C839D83AE83BF838FE392E09983888382
:1031A0008DE190E00E9486289A8F898F009779F0B0
:1031B0002DE1F701DC0101900D922A95E1F74CE039
:1031C00050E0B801CE010C960E94A42A188EDF911F
:1031D000CF911F910F91FF90EF900895EF92FF9282
:1031E0000F931F93CF93DF93CDB7DEB7C755D109A8
:1031F0000FB6F894DEBF0FBECDBF8C011C821B82C0
:1032000083E3E82E82E0F82EFA82E9821E82CE0164
:1032100001960E94E00ABE016F5F7F4FCE01CB9600
:103220000E940F0F19A218A2FF8EEE8E1BA22196EC
:103230008FAD2197811121C0F8011382128288EE8F
:1032400093E0A0E0B0E084839583A683B7838FE307
:1032500092E091838083128E118E1486C801C95A20
:10326000DF4F0FB6F894DEBF0FBECDBFDF91CF9119
:103270001F910F91FF90EF90089527E142EA52E0ED
:10328000BE01655C7F4FCE014E96CADD8823A1F258
:10329000CE01CB960E945F0D49A95AA96BA97CA9C2
:1032A000CE014E960E94330BBE01625E7F4FCE016F
:1032B00001960E940F0F42EA52E0BE016F5F7F4FFE
:1032C000C80157DFCBCFDF92EF92FF920F931F938E
:1032D000CF93DF93CDB7DEB7CD55D1090FB6F894B4
:1032E000DEBF0FBECDBF0E9440056093DA0470932D
:1032F000DB048093DC049093DD0481E08093160569
:1033000088E680933805109217051092390563E01E
:1033100082E298E00E94D2050E949F0287E090E03E
:10332000F0DA82E298E00E948C058F77282F30E057
:1033300094E0359527959A95E1F7922F990F990F7B
:10334000122F191B110F180F82E298E00E948C05B2
:103350009C0144E0359527954A95E1F72F70332776
:10336000922F990F990F022F091B000F080F82E26D
:1033700098E00E948C059C0154E0359527955A955C
:10338000E1F72F703327922F990F990FF22EF91A28
:10339000FF0CF80E82E298E00E948C059C0164E02C
:1033A000359527956A95E1F72F703327922F990F5E
:1033B000990FE22EE91AEE0CE80E82E298E00E94E4
:1033C0008C0582E298E00E948C059C0174E03595A2
:1033D00027957A95E1F72F703327922F990F990F40
:1033E000D22ED91ADD0CD80E82E298E00E948C050C
:1033F0009C01E4E035952795EA95E1F72F70332796
:10340000922F990F990F291B220F820F8093A308E7
:10341000D092A408E092A508F092A6080093A7080D
:103420001093A80860E572E085E897E052DB6091B0
:10343000A808CE01885A9F4F51DC6AE3CE018E5A0C
:103440009F4F75DC6091A708CE01845B9F4F46DCDF
:103450006AE3CE018A5B9F4F6ADC6091A608CE01C9
:10346000805C9F4F3BDC61E674E0CE01CA9694DC41
:103470006091A508CE01C49631DC6FE2CE018E9634
:1034800056DC6091A408CE01889628DC6FE2CE015C
:1034900082964DDC8091A30890E01D8E1C8E1F8EBD
:1034A0001E8E19A218A24AE0BE016F5F7F4F8053A3
:1034B000984F0E942224BE016F5F7F4FCE014C9631
:1034C00004DCBE01645E7F4FCE0101965DDCBE016F
:1034D0006E5D7F4FCE010196C8DBBE01685D7F4FF8
:1034E000C4DBBE01625D7F4FC0DBBE016C5C7F4F01
:1034F000BCDBBE01665C7F4FB8DBBE01605C7F4F0A
:10350000B4DBBE016A5B7F4FB0DBBE01645B7F4F03
:10351000ACDBBE016E5A7F4FA8DBBE01685A7F4FFD
:10352000A4DBBC018AEC98E01ADCCE0101961FDB1B
:10353000CE014C961CDBCE01829619DBCE0188961B
:1035400016DBCE018E9613DBCE01C49610DBCE01C6
:10355000CA960DDBCE01805C9F4F09DBCE018A5BF2
:103560009F4F05DBCE01845B9F4F01DBCE018E5A5E
:103570009F4FFDDACE01885A9F4FF9DA6AEC78E066
:1035800085E897E0B5DA68E672E085E897E0A1DAC9
:10359000CE01019623DECE0101960E946802E091E1
:1035A000C808F091C908309789F18581882371F1A5
:1035B00067E872E08FEA98E08CDA6AEC78E08FEAEC
:1035C00098E096DA8091C8089091C908009761F058
:1035D0000E945F0D8091C8089091C9080E9422291D
:1035E0001092C9081092C8088EE892E09DDAC35A7A
:1035F000DF4F0FB6F894DEBF0FBECDBFDF91CF9186
:103600001F910F91FF90EF90DF90089584E992E071
:10361000EDCF1F920F920FB60F9211240BB60F929F
:103620002F933F934F935F936F937F938F939F93CA
:10363000AF93BF93EF93FF9385E897E00E947103E8
:10364000FF91EF91BF91AF919F918F917F916F917A
:103650005F914F913F912F910F900BBE0F900FBE36
:103660000F901F9018951F920F920FB60F92112472
:103670000BB60F922F938F939F93EF93FF93E0914D
:103680009507F09196078081E0919B07F0919C0748
:1036900082FD1DC0908180919E078F5F8F73209166
:1036A0009F07821741F0E0919E07F0E0EB57F84F3B
:1036B000958F80939E07FF91EF919F918F912F910E
:1036C0000F900BBE0F900FBE0F901F90189580812A
:1036D000F2CF1F920F920FB60F9211242F933F93A8
:1036E0008F939F93AF93BF938091C5049091C6042D
:1036F000A091C704B091C8043091C40423E0230F03
:103700002D3758F50196A11DB11D2093C404809357
:10371000C5049093C604A093C704B093C8048091D5
:10372000C9049091CA04A091CB04B091CC04019635
:10373000A11DB11D8093C9049093CA04A093CB042A
:10374000B093CC04BF91AF919F918F913F912F91F6
:103750000F900FBE0F901F90189526E8230F02962A
:10376000A11DB11DD2CF1F920F920FB60F9211243F
:103770000BB60F922F933F934F935F936F937F936B
:103780008F939F93AF93BF93EF93FF938091B90073
:10379000887F803609F44DC008F040C0883209F4B3
:1037A000A9C028F5803109F49DC0C8F4882309F424
:1037B000FBC0883009F496C0FF91EF91BF91AF91A3
:1037C0009F918F917F916F915F914F913F912F9139
:1037D0000F900BBE0F900FBE0F901F901895883161
:1037E00009F488C0803241F780935E0514C08034AC
:1037F00009F49DC040F48033B9F38833E9F680932F
:103800005E0585ECB0C0803509F485C0883509F4C3
:1038100096C0883489F60E944C05CECF883909F4C9
:103820008CC038F5883729F050F4883611F080378D
:1038300019F683E0809360051092C30457C088385E
:1038400009F47BC0803919F0803809F0B5CF809138
:10385000C304803208F071C0E091C30481E08E0F90
:103860008093C3048091BB00F0E0ED55FB4F808353
:103870003DC0803B39F0E0F4803A09F479C0883AE1
:1038800009F09ACF84E0809360051092A204109210
:10389000A104E091D004F091D10419958091A10484
:1038A00081110FC081E08093A1041092810409C0AE
:1038B000803C09F4A6CF883C09F4A3CF883B09F0EB
:1038C0007BCFE091A20481E08E0F8093A204F0E010
:1038D000EF57FB4F80818093BB009091A2048091B1
:1038E000A10429C080915B058093BB0085EC809387
:1038F000BC0062CF90915D0580915C05981758F5EA
:10390000E0915D0581E08E0F80935D05F0E0E65C5F
:10391000FA4F8081E9CFE0915D0581E08E0F8093C1
:103920005D058091BB00F0E0E65CFA4F80839091EA
:103930005D0580915C059817C8F285E8D8CFE091C5
:103940005D0581E08E0F80935D058091BB00F0E006
:10395000E65CFA4F808380915F0581115CCF81E046
:1039600080935A0584EA8093BC001092600524CFAE
:1039700085EC8093BC00109260058091C304803276
:1039800030F4E091C304F0E0ED55FB4F10826091FC
:10399000C30470E0E091CE04F091CF0483EA94E098
:1039A00019951092C30408CF10925E0534CFCF92C0
:1039B000DF92EF92FF92E5E8F7E01382128288EE41
:1039C000C82E83E0D82EE12CF12CC482D582E68269
:1039D000F7828FE092E09183808385EC90E0958779
:1039E000848784EC90E09787868780EC90E0918BC9
:1039F000808B81EC90E0938B828B82EC90E0958BB6
:103A0000848B86EC90E0978B868B118E128E138EB2
:103A1000148EE2E2F8E013821282C482D582E6823A
:103A2000F78281E292E091838083EEE2F8E080E524
:103A300080831182E0E3F8E01582168211861386F6
:103A400082E090E0A0E0B0E084879587A687B78702
:103A500013A215A614A683E392E093A782A717A644
:103A600060E082E00E94BA04E5EDF3E0E491A3EEA9
:103A7000B8E0EC93EFE8F3E0E491F0E0EE0FFF1F25
:103A8000ED58FC4F8591949112969C938E931197CB
:103A90001B961C921B971D961C921D971C961C92A0
:103AA0001C971A961C921A9719961C921997189699
:103AB0001C92189717961C92179716961C92169799
:103AC00015961C92159714961C92149713961C9297
:103AD0001397E0EDF8E081E492E0928B818BB6835E
:103AE000A5831482108289E0818381E082838383AD
:103AF0006FE472E08AEC98E04FD9EFEAF8E01382C5
:103B00001282C482D582E682F7828FE392E09183AB
:103B10008083128E118E148689EA98E00E944202F8
:103B200083EA98E00E9442026FE472E08DE998E037
:103B300033D96FE472E089E798E02ED96FE472E040
:103B40008FE798E029D96FE472E085E898E024D9FE
:103B50006FE472E08BE898E01FD96FE472E081E9CE
:103B600098E01AD96FE472E087E998E0FF90EF904F
:103B7000DF90CF9011C9CF93DF93CDB7DEB7AA976F
:103B80000FB6F894DEBF0FBECDBF789484B58260C7
:103B900084BD84B5816084BD85B5826085BD85B5F1
:103BA000816085BD80916E00816080936E0010926F
:103BB00081008091810082608093810080918100EA
:103BC000816080938100809180008160809380007B
:103BD0008091B10084608093B1008091B0008160D9
:103BE0008093B000809191008260809391008091D9
:103BF000910081608093910080919000816080931A
:103C000090008091A10082608093A1008091A1002A
:103C100081608093A1008091A00081608093A000CA
:103C20008091210182608093210180912101816036
:103C300080932101809120018160809320018091F7
:103C40007A00846080937A0080917A008260809309
:103C50007A0080917A00816080937A0080917A0066
:103C6000806880937A001092C100E0919507F091EE
:103C7000960782E08083E0919107F091920710828D
:103C8000E0919307F09194078FEC808310929D0749
:103C9000E0919907F0919A0786E08083E091970779
:103CA000F0919807808180618083E0919707F0917F
:103CB0009807808188608083E0919707F09198074A
:103CC000808180688083E0919707F09198078081D8
:103CD0008F7D80838EEA92E00E9494158BEB92E0B8
:103CE0000E94941585EE92E00E949415E091D5080B
:103CF000F091D608138615861486128611861086D2
:103D0000178216821582148213821092D40801E061
:103D1000BE016D5D7F4F8091D5089091D6080E94BD
:103D2000D113882309F45BC067E0CE0183960E941B
:103D300013119AA58913ECCF8091D008811128C066
:103D40008091D5089091D6080E94DD11BE016D5D6D
:103D50007F4F8091D5089091D6080E94C01140E015
:103D600064EB8091D5089091D6080E948D118091C6
:103D7000D5089091D6080E941F11182F8091D50860
:103D80009091D6080E94DD11111102C00093D00855
:103D9000BE016F5F7F4FCE0183960E941512109176
:103DA000D1088BA1803109F4ACC4CE0183960E9466
:103DB0007012811750F48091D1088093D1088091BE
:103DC000D4088F5F8093D408A3CF8BA1803111F4E6
:103DD00089E0F3CFCE0183960E947012EECF60E0AF
:103DE0008AE095E00E944F14811104C08AE093E0BC
:103DF0000E94941561E08EEF94E00E944F148111AF
:103E000004C08FE293E00E94941562E082EF94E098
:103E10000E944F14811104C084E593E00E94941520
:103E200063E086EE94E00E944F14811104C089E79C
:103E300093E00E9494158AE095E00E9463138EEF50
:103E400094E00E94631382EF94E00E94631386EE75
:103E500094E00E9463131092D2086EE973E085E843
:103E600097E00E94691580915F08882321F08AE518
:103E700098E00E945F0D10923B0810923908109252
:103E80003608109235088AE0809334080E94400575
:103E90008B0161E0809134080E94BA0461E0809156
:103EA00034080E942E04FFB6F8948091CD0481114D
:103EB00027C0E2ECF3E08491E8E0F4E09491E82F8D
:103EC000F0E0EE0FFF1FE25BFC4FA591B491EC9187
:103ED000E92321F461E085E30E942E0461E085E39B
:103EE0000E94BA048CB580618CBD8CB580648CBD99
:103EF00061E084E30E94BA0461E083E30E94BA04B3
:103F00008091CD048F5F8093CD04FFBE82E58093C6
:103F10002E0810922F0880912E0890912F080E9451
:103F20003406EAE0FE2E8FEF0E941306FA94F11099
:103F3000FACF80E398E00E94370620E030E0A90144
:103F400060E080E398E00E944B06F82E80933A08E8
:103F500021E0821789F00E944005601B710B613DD2
:103F6000774058F381E08093350880E398E00E9421
:103F700009068AEC93E07CC02AEA31E040E050E098
:103F800068E080E398E00E944B0682FF2AC0F0922E
:103F90003B0880913B08C12CD12CE12C60E4F62E2B
:103FA000823019F0C12CD12C760120E030E0A9013B
:103FB00067E380E398E00E944B06A701960169E25F
:103FC00080E398E00E944B0680933A088823D1F062
:103FD0000E944005601B710B613D774030F388E023
:103FE000C2CF74E0F72E0E941A0680933A08FA9422
:103FF000F110F9CF8A3A11F082E0B5CF82E08093D8
:104000003B08C7CF80913B088230D1F420E030E0FC
:10401000A9016AE380E398E00E944B06882311F02F
:1040200086E0A1CF0E941A06807C803C19F483E0D0
:1040300080933B080E941A060E941A060E941A06E4
:1040400080E398E00E94090680E580932E08109294
:104050002F0881E00E942E08882309F419C28AE5FE
:1040600098E00E94E00A882309F483CF87EB93E06D
:104070000E94941510926205109261051092170526
:10408000109239051092600511E010935F051092AF
:104090005A0561E084E10E942E0461E085E10E94FE
:1040A0002E048091B9008E7F8093B9008091B90071
:1040B0008D7F8093B90088E48093B80085E4809375
:1040C000BC008CEF92E09093D1048093D0048DEFEC
:1040D00092E09093CF048093CE041093160588E667
:1040E00080933805109217051092390562E082E23C
:1040F00098E00E94D2050E949F0281E090E00E9419
:10410000811482E298E00E948C05807E9927803E8F
:10411000910521F487EE93E00E949415D4D88CEF9A
:1041200093E00E9494150E94C7140E94400560937A
:10413000120570931305809314059093150520E4E0
:10414000C22E36E0B32EDD24D39448E6A42E0DE92A
:1041500018E050E3952EBE016F5F7F4F8AE095E037
:104160000E9415128981882309F483C1BE016F5F03
:104170007F4F8EEF94E00E9415128981882309F405
:1041800078C1BE016F5F7F4F82EF94E00E941512ED
:104190008981882309F46DC1BE016F5F7F4F86EE70
:1041A00094E00E9415128981882309F462C18AE093
:1041B00095E00E949C12609306057093070580931A
:1041C0000805909309058EEF94E00E949C1260937D
:1041D000FA047093FB048093FC049093FD0482EF37
:1041E00094E00E949C126093EE047093EF0480931D
:1041F000F0049093F10486EE94E00E949C12609388
:10420000E2047093E3048093E4049093E5048091C6
:104210007B00877F80937B00C0927C0080917A0036
:10422000806480937A0080917A0086FDFCCF809133
:10423000780060917900762F682F072E000C880B8C
:10424000990B7BD525ED32E449E95EE3B1D521E256
:1042500037EB40E852E479D66093DE047093DF04D4
:104260008093E0049093E104409012055090130570
:1042700060901405709015058091DA049091DB042C
:10428000A091DC04B091DD04481A590A6A0A7B0A3D
:104290004092D6045092D7046092D8047092D90408
:1042A00064E174E08AEC98E00E9465161CA21BA2EF
:1042B0001EA21DA218A61FA22AE0AE014F5F5F4FEB
:1042C000C301B2017BD2BE016F5F7F4FCE018396E7
:1042D0000E946516BE016D5D7F4FCE0101960E9462
:1042E000C416CE0101960E9425160E941D16CE010D
:1042F00001960E94B715CE0183960E94B715409192
:10430000060550910705609108057091090522E0A6
:10431000CE0183960E94DC16BE016D5D7F4FCE01FB
:1043200001960E94C416CE0101960E9425160E9495
:104330001D16CE0101960E94B715CE0183960E94EC
:10434000B7154091FA045091FB046091FC04709100
:10435000FD0422E0CE0183960E94DC16BE016D5D55
:104360007F4FCE0101960E94C416CE0101960E9495
:1043700025160E941D16CE0101960E94B715CE018A
:1043800083960E94B7154091EE045091EF0460911E
:10439000F0047091F10422E0CE0183960E94DC16B5
:1043A000BE016D5D7F4FCE0101960E94C416CE0105
:1043B00001960E9425160E941D16CE0101960E94AC
:1043C000B715CE0183960E94B7154091E204509133
:1043D000E3046091E4047091E50422E0CE01839649
:1043E0000E94DC16BE016D5D7F4FCE0101960E94DA
:1043F000C416CE0101960E9425160E941D16CE01FC
:1044000001960E94B715CE0183960E94B715409180
:10441000DE045091DF046091E0047091E10423E038
:10442000CE0101960E94DC16CE0101960E941D1657
:10443000CE0101960E94B71585E897E00E945C03C3
:104440001816190634F485E897E00E943A03809321
:10445000040280910402813311F1843709F45DC0B4
:10446000803309F049C16AEC78E085E897E00E9462
:1044700078150E94C7140E9440056093120570933E
:10448000130580931405909315050E94FE0363CED7
:1044900080E00E942E08882309F46BCDE0CDCE0188
:1044A00001960E94EE18CE0101960E946802E091EA
:1044B000C808F091C9083097D9F085818823C1F0E8
:1044C0006AEC78E08FEA98E00E9478158091C8083D
:1044D0009091C908009739F20E945F0D8091C80839
:1044E0009091C908AFD61092C9081092C808BBCFE6
:1044F00087E194E00E949415B6CFE9821A82B29EB9
:10450000C001B39E900D112441E050E0BE016F5FE9
:104510007F4F8758974F0E94F21585E897E00E94D9
:104520005C03181619061CF585E897E00E943A030B
:104530007C019093D5048093D40489831A8241E04E
:1045400050E0BE016F5F7F4F8DE998E00E94F21549
:104550002091D2043091D3048CE2E816F10469F67C
:104560002F5F3F4F3093D3042093D204D6CF67E31D
:1045700074E085E897E00E94691587E998E00E9459
:10458000BF15362E81E998E00E94BF15462E8BE8B4
:1045900098E00E94BF15562E85E898E00E94BF154E
:1045A000662E8FE798E00E94BF15862E89E798E077
:1045B0000E94BF157B01603D774020F020EDE21A9C
:1045C00027E0F20AD0921605A0923805109217053E
:1045D0001092390563E082E298E00E94D2058AE0F9
:1045E000F82E832D6F2D7ED5682F660F680F660F0E
:1045F000630D82E298E00E94D205842D6F2D72D562
:10460000682F660F680F660F640D82E298E00E94C3
:10461000D205852D6F2D66D5682F660F680F660F42
:10462000650D82E298E00E94D205862D6F2D5AD545
:10463000682F660F680F660F660D82E298E00E9491
:10464000D20560E082E298E00E94D205882D6F2DAD
:1046500049D5682F660F680F660F680D82E298E0F3
:104660000E94D2058E2D6F2D3DD5682F660F680FE5
:10467000660F6E0D82E298E00E94D2050E949F02B2
:10468000D0921605109217051092390562E082E269
:1046900098E00E94D20560E082E298E00E94D20594
:1046A0000E949F026DE474E085E897E00E9469151E
:1046B0006DE978E085E897E00E94781599E7E92EA2
:1046C00098E0F92E6FE472E0C7010E94651686E05B
:1046D000E80EF11C0E151F05A9F71092D3041092D5
:1046E000D2046FE472E08DE998E00E946516909222
:1046F00004020E946319BDCE83E694E00E949415E3
:10470000B8CE1A3008F057CB63CBCF93DF93CDE907
:10471000D8E02697CE010E94B71588E0C937D807A0
:10472000C1F78DE998E00E94B7158AEC98E0DF9117
:10473000CF910C94B715EF920F931F93CF93DF9304
:10474000E80134E047FD34E1042E000C550B57FF1F
:1047500003C0519541955109E32E022F242FAE013C
:104760008AD0CE01DF91CF911F910F91EF900895E4
:104770001F93FC0199278827BC01E89411911032FE
:10478000E9F3193010F01E30C8F31B3249F01D3226
:1047900041F4689405C020D0610F711D811D911DE9
:1047A000119110531A30B8F33EF49095809570959E
:1047B00061957F4F8F4F9F4F1F910895BB272A30E0
:1047C00051F4992342F4BDE29095809570956195DE
:1047D0007F4F8F4F9F4F16C0592F482F372F262FAF
:1047E000660F771F881F991F660F771F881F991FF5
:1047F000620F731F841F951F660F771F881F991FF5
:104800000895BB27FA01A62F62177105810591054E
:10481000330B30FB66F0AA27660F771F881F991F9E
:10482000AA1FA21710F0A21B63953850A9F7A05D2C
:10483000AA3308F0A95DA19336F7B111B1931082A4
:10484000CA0169C2BB27FB015527AA27880F991FF8
:10485000AA1FA41710F0A41B83955051B9F7A05DAF
:10486000AA3308F0A95DA193009779F7B111B1932C
:104870001192CB0150C28F929F92AF92BF92CF9272
:10488000DF92EF92FF920F931F93CF93DF9300D0AD
:1048900000D000D0CDB7DEB76A01F22EB02E102FB7
:1048A000FBE3AF2EA01608F41BE31F5F012F27E0E8
:1048B000AE014F5F5F4F57D1BC018981982F99702E
:1048C000913009F44EC09BE2E1FC04C09E2D917032
:1048D000E0FC49C05E2D5071E82FE87083FF55C0A1
:1048E00084E0911101C083E0EF2DE81B8F1508F0E3
:1048F000E0E0D6018E2F20E25523C9F1992329F05B
:10490000D6019C93C60101966C0196012D5F3F4F25
:10491000E2FE33C08EE4D6018C9391E411969C9311
:10492000119712968C93D9018E2F90E281112AC093
:10493000E20FF32FF11D10828EEF9FEF29960FB635
:10494000F894DEBF0FBECDBFDF91CF911F910F91C5
:10495000FF90EF90DF90CF90BF90AF909F908F909F
:1049600008959DE2B7CF90E2B5CF2D93815081118C
:10497000FCCFCE0ED11CE0E0C1CF8EE6D6018C93E9
:1049800091E6CCCF9D938150D1CF482F447082FFC8
:104990003DC084E0911101C083E08F1510F4EF2D2C
:1049A000E81BD6018E2F20E2552309F1992329F027
:1049B000D6019C93C60101966C0196012D5F3F4F75
:1049C000E2FE1BC089E4D6018C938EE411968C9391
:1049D000119786E412968C93D9018E2F90E288234A
:1049E00009F4A6CF9D938150FACF2D938150811168
:1049F000FCCFCE0ED11CE0E0D9CF89E6D6018C9356
:104A00008EE611968C93119786E6E4CF9B0177FF93
:104A100002C030E020E0A1E0B0E0911102C0B0E0BF
:104A2000A0E0F9013196AE0FBF1F8B2C912CBB205B
:104A300009F461C05401EFEFAE1ABE0AAA0DBB1D06
:104A4000FA161B0619F014F04F2D4A1B511188C09D
:104A5000E3FC59C07601A42FB0E2A1114FC0C40EEF
:104A6000D11C992309F45BC040E0D6011196F601F0
:104A700090836D01552309F448C0012F060F9A81D8
:104A8000582F507184FF03C0913309F40150101660
:104A90000CF047C0093008F008E0EEE2FE2E5B01A2
:104AA000A01AB10885019194819491082F3F320793
:104AB00029F4D601FC92F60131966F016217730753
:104AC00094F1021713077CF5DB01A21BB30BAA2498
:104AD000A394B12CAC0EBD1EAA0DBB1D11968C91DA
:104AE00021503109D601119628153905F4F0F60147
:104AF00080836D01DBCFB12CA12CA0CFF701B19346
:104B00007F01A150AACF9111B0CFD601942F50E3CD
:104B100002C05D9391509111FCCFC40ED11C40E0B6
:104B2000ACCF01E0BACF80E3DBCF6217730731F47B
:104B3000963388F4953311F4552369F0F601808398
:104B4000FD01842F90E2811108C0A40FB11D1C92B9
:104B500090E080E0F3CE81E3F1CF91938150F3CFE9
:104B6000911183CF8ACF283008F027E03327DA016C
:104B7000990F311D87FD916000966105710539F42B
:104B800032602E5F3D9330E32A95E1F708959F3F11
:104B900030F080387105610509F03C5F3C5F3D9362
:104BA000913008F08068911DDF93CF931F930F938E
:104BB000FF92EF92192F987F9695E92F96959695EB
:104BC000E90FFF27E25CFE4F99273327EE24FF24ED
:104BD000A701E70105900894079428F4360FE71E13
:104BE000F81E491F511D660F771F881F991F0694D5
:104BF000A1F70590079428F4E70EF81E491F561FE9
:104C0000C11D770F881F991F661F0694A1F7059095
:104C1000079428F4F80E491F561FC71FD11D880F8F
:104C2000991F661F771F0694A1F70590079420F43B
:104C3000490F561FC71FD81F990F661F771F881F60
:104C40000694A9F784911095177041F0D695C795F1
:104C500057954795F794E7941A95C1F7E4EEF0E07D
:104C600068941590159135916591959105907FE225
:104C70007395E118F10A430B560BC90BD009C0F725
:104C8000E10CF11E431F561FC91FD01D7EF4703367
:104C900011F48A95E6CFE894015030F0080F0AF439
:104CA0000027021708F4202F2395022F7A3328F0CB
:104CB00079E37D932A95E9F710C07D932A9589F6CB
:104CC000069497956795379517951794E118F10A0B
:104CD000430B560BC90BD00998F023957E91739521
:104CE0007A3308F070E37C932013B8F77E917061FB
:104CF0007D9330F0839571E37D9370E32A95E1F71E
:104D00001124EF90FF900F911F91CF91DF91992780
:104D100087FD90950895DC01FC01672F7191772341
:104D2000E1F7329704C07C916D9370836291AE1766
:104D3000BF07C8F30895E89409C097FB3EF4909527
:104D40008095709561957F4F8F4F9F4F9923A9F064
:104D5000F92F96E9BB279395F695879577956795F3
:104D6000B795F111F8CFFAF4BB0F11F460FF1BC037
:104D70006F5F7F4F8F4F9F4F16C0882311F096E9CA
:104D800011C0772321F09EE8872F762F05C0662378
:104D900071F096E8862F70E060E02AF09A95660F31
:104DA000771F881FDAF7880F9695879597F90895EA
:104DB0000BD078C069D028F06ED018F0952309F098
:104DC0005AC05FC01124A2C07ED0A0F3959FD1F33A
:104DD000950F50E0551F629FF001729FBB27F00DA9
:104DE000B11D639FAA27F00DB11DAA1F649F6627FE
:104DF000B00DA11D661F829F2227B00DA11D621F4D
:104E0000739FB00DA11D621F839FA00D611D221F06
:104E1000749F3327A00D611D231F849F600D211DEA
:104E2000822F762F6A2F11249F5750408AF0E1F08D
:104E300088234AF0EE0FFF1FBB1F661F771F881FD6
:104E400091505040A9F79E3F510570F014C05EC0CC
:104E50005F3FECF3983EDCF3869577956795B795C1
:104E6000F795E7959F5FC1F7FE2B880F911D9695EB
:104E7000879597F9089597F99F6780E870E060E05B
:104E800008959FEF80EC089500240A9416161706E3
:104E900018060906089500240A941216130614062B
:104EA00005060895092E0394000C11F4882352F08E
:104EB000BB0F40F4BF2B11F460FF04C06F5F7F4F46
:104EC0008F4F9F4F089557FD9058440F551F59F02D
:104ED0005F3F71F04795880F97FB991F61F09F3FE7
:104EE00079F087950895121613061406551FF2CF10
:104EF0004695F1DF08C0161617061806991FF1CF60
:104F000086957105610508940895E894BB27662786
:104F10007727CB0197F9089509D0A59F900DB49FED
:104F2000900DA49F800D911D11240895A29FB001A2
:104F3000B39FC001A39F700D811D1124911DB29FCD
:104F4000700D811D1124911D08955058BB27AA276B
:104F50000ED0A8CF99DF30F09EDF20F031F49F3FD4
:104F600011F41EF48ECF0EF4E095E7FB84CFE92F09
:104F7000AADF80F3BA17620773078407950718F052
:104F800071F49EF5C2CF0EF4E0950B2EBA2FA02D32
:104F90000B01B90190010C01CA01A0011124FF27E6
:104FA000591B99F0593F50F4503E68F11A16F040E1
:104FB000A22F232F342F4427585FF3CF46953795E0
:104FC0002795A795F0405395C9F77EF41F16BA0BA5
:104FD000620B730B840BBAF09150A1F0FF0FBB1F53
:104FE000661F771F881FC2F70EC0BA0F621F731F9C
:104FF000841F48F4879577956795B795F7959E3FF9
:1050000008F0B3CF9395880F08F09927EE0F979586
:10501000879508950CD046CF3EDF40F035DF30F065
:1050200021F45F3F19F027CF511170CF2ACF4BDF0A
:1050300098F39923C9F35523B1F3951B550BBB275F
:10504000AA2762177307840738F09F5F5F4F220F0C
:10505000331F441FAA1FA9F333D00E2E3AF0E0E805
:1050600030D091505040E695001CCAF729D0FE2F51
:1050700027D0660F771F881FBB1F261737074807E3
:10508000AB07B0E809F0BB0B802DBF01FF27935899
:105090005F4F2AF09E3F510568F0EDCE37CF5F3F5E
:1050A000ECF3983EDCF3869577956795B795F79581
:1050B0009F5FC9F7880F911D9695879597F9089579
:1050C000E1E0660F771F881FBB1F62177307840715
:1050D000BA0720F0621B730B840BBA0BEE1F88F724
:1050E000E0950895991B79E004C0991F961708F080
:1050F000961B881F7A95C9F780950895EE0FFF1FBC
:10510000881F8BBF0790F691E02D19940F931F9382
:10511000CF93DF938230910510F482E090E0E0912C
:10512000F308F091F40830E020E0B0E0A0E0309720
:1051300099F42115310509F44AC0281B390B243094
:105140003105D8F58A819B816115710589F1FB01D3
:1051500093838283FE0111C04081518102811381BA
:1051600048175907E0F04817590799F4109761F06C
:1051700012960C93129713961C933296CF01DF91DF
:10518000CF911F910F9108950093F3081093F408A5
:10519000F4CF2115310551F04217530738F0A9011A
:1051A000DB019A01BD01DF01F801C1CFEF01F9CFA9
:1051B0009093F4088093F308CDCFFE01E20FF31F24
:1051C000819391932250310939832883D7CF20913D
:1051D000F1083091F208232B41F42091070230911D
:1051E00008023093F2082093F108209105023091D3
:1051F00006022115310541F42DB73EB74091090251
:1052000050910A02241B350BE091F108F091F2084D
:10521000E217F307A0F42E1B3F0B2817390778F08D
:10522000AC014E5F5F4F2417350748F04E0F5F1FEC
:105230005093F2084093F108819391939FCFF0E04F
:10524000E0E09CCFCF93DF930097E9F0FC01329729
:1052500013821282A091F308B091F408ED0130E0BE
:1052600020E01097A1F420813181820F931F2091BB
:10527000F1083091F2082817390709F061C0F0935E
:10528000F208E093F108DF91CF910895EA01CE177B
:10529000DF07E8F54A815B819E0141155105B1F7B1
:1052A000E901FB83EA8349915991C40FD51FEC179B
:1052B000FD0761F4808191810296840F951FE901B9
:1052C00099838883828193819B838A83F0E0E0E0E5
:1052D00012968D919C9113970097B9F52D913C9161
:1052E0001197CD010296820F931F2091F108309102
:1052F000F2082817390739F6309751F51092F4085B
:105300001092F308B093F208A093F108BCCFD383B6
:10531000C28340815181840F951FC817D90761F45A
:105320004E5F5F4F88819981480F591F5183408399
:105330008A819B81938382832115310509F0B0CF47
:10534000F093F408E093F3089ECFFD01DC01C0CF99
:1053500013821282D7CF4F925F926F927F928F9279
:105360009F92AF92BF92CF92DF92EF92FF920F93F4
:105370001F93CF93DF938C01009791F4CB01DF91C2
:10538000CF911F910F91FF90EF90DF90CF90BF9042
:10539000AF909F908F907F906F905F904F90B6CE20
:1053A000FC01E60FF71F9C0122503109E217F307B9
:1053B00008F4AAC0D901CD91DC911197C617D7077F
:1053C00018F1C530D10570F0CE0104978617970704
:1053D00048F0C61BD70B2297C193D1936D937C9352
:1053E000CF0130DFC801DF91CF911F910F91FF9066
:1053F000EF90DF90CF90BF90AF909F908F907F9075
:105400006F905F904F9008955B01AC1ABD0A4C01FC
:105410008C0E9D1EA091F308B091F408512C412CE4
:10542000F12CE12C109731F58091F1089091F20860
:105430008815990509F05CC04616570608F058C053
:105440008091050290910602009741F48DB79EB7B6
:105450004091090250910A02841B950BE817F90745
:1054600008F052C0F093F208E093F108F90171835B
:105470006083B8CF8D919C91119712966C90129782
:1054800013967C901397A815B90559F56C0142E065
:10549000C40ED11CCA14DB0420F1AC014A195B090B
:1054A000DA011296159780F06282738251834083ED
:1054B000D9016D937C93E114F10471F0D701139637
:1054C000FC93EE9312978ECF22968C0F9D1FF901BD
:1054D00091838083F301EFCFF093F408E093F30816
:1054E00081CF4816590608F42C017D01D3019ACFCB
:1054F000CB010CDE7C01009739F0AE01B80114D06D
:10550000C801A0DE87016ECF10E000E06BCFFB0189
:10551000DC0104C08D910190801921F4415050406C
:10552000C8F7881B990B0895FB01DC0102C00190AC
:105530000D9241505040D8F70895FB01DC010190D5
:105540000D920020E1F70895FB01DC01415050402D
:1055500048F001900D920020C9F701C01D92415002
:105560005040E0F7089512E0CEE0D2E000E005C040
:10557000802FFE01C3DD2196011DCF30D10780E0D1
:085580000807B1F7F894FFCF12
:10558800FFFFFFFF300000F50880000000000093D7
:1055980003FE022B03DF035C033A034E0300000003
:1055A80000D205A605000641029F058C057D050071
:1055B800000000FF0EFE02070D5F0F00000000B4A0
:1055C8000F980F880F600F680FE810F1100D0A0090
:1055D8002B2054412D4441207374617274207469E6
:1055E8006D652069733A20002F57726974696E6778
:1055F8002073746172742074696D6520746F2066FD
:10560800696C652E2E2E0073746172742C00444FE1
:105618004E452E006572726F72206F70656E696EEE
:105628006720646174616C6F672E637376002F095D
:1056380054412D4441205A554B4F002F54686572F0
:105648006D6F636F75706C6520416D706C6966690C
:105658006572202D204461746120417175697369F8
:1056680074696F6E002F5374617274696E67205489
:105678006865726D6F636F75706C6520416D706CD5
:105688006966696572732E2E2E002F556E61626CE5
:105698006520746F2066696E642061646472657346
:1056A8007320666F72204465766963652030002F29
:1056B800556E61626C6520746F2066696E64206146
:1056C80064647265737320666F72204465766963DB
:1056D800652031002F556E61626C6520746F2066FD
:1056E800696E64206164647265737320666F7220EA
:1056F8004465766963652032002F556E61626C657A
:1057080020746F2066696E642061646472657373C7
:1057180020666F72204465766963652033002F49DF
:105728006E697469616C697A696E67205344206395
:105738006172642E2E2E002F6361726420696E6977
:105748007469616C697A65642E002F436172642004
:105758006661696C65642C206F72206E6F742070AE
:10576800726573656E74002F525443206973204E1E
:105778004F542072756E6E696E6721002F2D2D2D86
:105788002053455455502046494E495348454420D6
:105798002D2D2D007C2C002F4572726F723A2064DB
:1057A8006174616C6F672E637376206F70656E200D
:1057B8006661696C6564002F53796E63726F6E69F8
:1057C8007A696E672074696D652E2E2E00446F6E9F
:1057D800652E200A2F54696D652053657420746FF7
:1057E8003A20007C2C6572722C6572722C6572727C
:0A57F8002C6572722C6572720000BD
:020000023000CC
:10E000000D9489F10D94B2F10D94B2F10D94B2F129
:10E010000D94B2F10D94B2F10D94B2F10D94B2F1F0
:10E020000D94B2F10D94B2F10D94B2F10D94B2F1E0
:10E030000D94B2F10D94B2F10D94B2F10D94B2F1D0
:10E040000D94B2F10D94B2F10D94B2F10D94B2F1C0
:10E050000D94B2F10D94B2F10D94B2F10D94B2F1B0
:10E060000D94B2F10D94B2F10D94B2F10D94B2F1A0
:10E070000D94B2F10D94B2F10D94B2F10D94B2F190
:10E080000D94B2F10D94B2F10D94B2F10D94B2F180
:10E090000D94B2F10D94B2F10D94B2F10D94B2F170
:10E0A0000D94B2F10D94B2F10D94B2F10D94B2F160
:10E0B0000D94B2F10D94B2F10D94B2F10D94B2F150
:10E0C0000D94B2F10D94B2F10D94B2F10D94B2F140
:10E0D0000D94B2F10D94B2F10D94B2F10D94B2F130
:10E0E0000D94B2F141546D656761323536300041AF
:10E0F000726475696E6F206578706C6F72657220DE
:10E1000073746B3530305632206279204D4C530099
:10E11000426F6F746C6F616465723E004875683F52
:10E1200000436F6D70696C6564206F6E203D200048
:10E130004350552054797065202020203D20005FF9
:10E140005F4156525F415243485F5F3D2000415658
:10E1500052204C696243205665723D20004743437C
:10E160002056657273696F6E203D20004350552024
:10E1700049442020202020203D20004C6F7720663D
:10E18000757365202020203D20004869676820665F
:10E190007573652020203D200045787420667573D6
:10E1A00065202020203D20004C6F636B2066757336
:10E1B000652020203D20004D617220203720323024
:10E1C000313300312E362E3800342E332E350056A2
:10E1D00023202020414444522020206F7020636F70
:10E1E00064652020202020696E73747275637469E1
:10E1F0006F6E2061646472202020496E74657272B3
:10E20000757074006E6F20766563746F7200726A49
:10E210006D702020006A6D70200057686174207056
:10E220006F72743A00506F7274206E6F7420737541
:10E2300070706F72746564004D7573742062652030
:10E2400061206C6574746572002000577269747483
:10E25000696E672045450052656164696E672045B7
:10E26000450045452065727220636E743D00504F35
:10E27000525400303D5A65726F2061646472003FF1
:10E280003D43505520737461747300403D454550C3
:10E29000524F4D207465737400423D426C696E6B41
:10E2A000204C454400453D44756D70204545505215
:10E2B0004F4D00463D44756D7020464C415348001B
:10E2C000483D48656C70004C3D4C69737420492F83
